:020000040800F2
:10000000000002204D330008FD200008FF200008FA
:10001000012100080321000805210008000000005C
:1000200000000000000000000000000007210008A0
:1000300009210008000000000B2100080D21000824
:100040009D3300089D3300089D3300089D33000850
:100050009D3300089D3300089D3300089D33000840
:100060009D3300089D3300089D3300089D33000830
:100070009D3300089D3300089D3300089D33000820
:100080009D3300089D3300089D3300089D33000810
:100090009D3300089D3300089D3300089D33000800
:1000A0009D3300089D3300089D3300089D330008F0
:1000B0009D3300089D3300089D3300089D330008E0
:1000C0009D3300089D3300089D3300089D330008D0
:1000D0009D3300089D3300089D3300089D330008C0
:1000E0009D3300089D3300089D3300089D330008B0
:1000F0009D3300089D3300089D3300089D330008A0
:100100009D3300089D3300089D3300089D3300088F
:100110009D3300089D3300089D3300089D3300087F
:100120009D3300089D3300089D3300089D3300086F
:100130009D33000800000000000000009D3300080F
:100140009D3300089D3300089D3300089D3300084F
:100150009D3300089D3300089D3300089D3300083F
:100160009D3300089D3300089D3300089D3300082F
:100170009D3300089D3300089D33000800000000F7
:10018000000000009D330008000000000000000097
:100190009D33000800000000000000009D330008AF
:1001A0000000000000000000000000009D33000877
:1001B0009D3300089D3300089D3300089D330008DF
:0401C0009D33000863
:1001C40010B5054C237833B9044B13B10448AFF38D
:1001D40000800123237010BDE4050020000000000E
:1001E4006835000808B5034B1BB103490348AFF356
:1001F400008008BD00000000E80500206835000804
:1002040053B94AB9002908BF00281CBF4FF0FF3179
:100214004FF0FF3000F06EB9ADF1080C6DE904CE7B
:1002240000F006F8DDF804E0DDE9022304B07047CD
:100234002DE9F047089D04468C46002B40F083804E
:100244008A42174647D9B2FA82F242B1C2F120007B
:1002540024FA00F09140974040EA010C94404FEAA0
:100264001748230CBCFBF8F61FFA87FE08FB16C1DF
:1002740043EA014306FB0EF1994209D9FB1806F142
:10028400FF3080F01981994240F21681023E3B44CE
:100294005B1AA4B2B3FBF8F008FB103344EA03443E
:1002A40000FB0EFEA64509D93C1900F1FF3380F08E
:1002B4000581A64540F2028102383C4440EA0640EA
:1002C400A4EB0E0400261DB1D4400023C5E900436D
:1002D4003146BDE8F08702B9FFDEB2FA82F2002AA5
:1002E40050D1CB1B4FEA174E1FFA87F80126B3FBF8
:1002F400FEFC210C0EFB1C3341EA034108FB0CF30A
:100304008B4207D979180CF1FF3002D28B4200F2EC
:10031400E9808446C91AA3B2B1FBFEF00EFB1011AA
:1003240043EA014408FB00F8A04507D93C1900F151
:10033400FF3302D2A04500F2D9801846A4EB08048A
:1003440040EA0C40BFE78B4209D9002D00F0B18090
:100354000026C5E9000130463146BDE8F087B3FA0E
:1003640083F6002E4AD18B4202D3824200F2B88037
:10037400841A61EB030101208C46002DA8D0C5E945
:10038400004CA5E7C2F1200320FA03F6974001FAD6
:1003940002F04FEA174ED9403043030CB1FBFEF68E
:1003A4001FFA87F80EFB161143EA014306FB08F116
:1003B400994204FA02F409D9FB1806F1FF3C80F0D3
:1003C4008D80994240F28A80023E3B445B1A81B29E
:1003D400B3FBFEF00EFB103341EA034100FB08F3CC
:1003E4008B4207D9791800F1FF3C73D28B4271D943
:1003F40002383944CB1A40EA064678E7C6F1200CA5
:1004040003FA06F422FA0CF31C4320FA0CF701FA5F
:1004140006F34FEA144E21FA0CF11F433B0CB1FBD7
:10042400FEF91FFA84F80EFB191143EA014109FB96
:1004340008FA8A4502FA06F200FA06F308D96118A6
:1004440009F1FF3048D28A4546D9A9F1020921446D
:10045400A1EB0A01BFB2B1FBFEF00EFB101147EA9B
:10046400014700FB08F8B84507D9E71900F1FF3147
:100474002ED2B8452CD90238274440EA0940A7EBCC
:100484000807A0FB02894F45C64649461AD317D030
:100494005DB1B3EB0E0267EB010707FA0CFCF24007
:1004A4004CEA0202F740C5E9002700263146BDE8C0
:1004B400F0872E4628460BE70646E9E61846FDE691
:1004C4004345E5D2B8EB020E69EB04010138DFE7DE
:1004D4000846D2E760468DE78146B9E7664675E788
:1004E40030464AE7ACF1020C394413E702383C4485
:1004F40024E700BF704700BF10B504460E4B1878C0
:100504004FF47A73B3FBF0F30C4A1068B0FBF3F0CA
:1005140000F09EF868B90F2C01D901200AE00022EE
:1005240021464FF0FF3000F05FF8054B1C600020BF
:1005340000E0012010BD00BF00000020B001002039
:100544000400002008B50B4B1A6842F400721A60CC
:100554001A6842F480621A601A6842F480721A605F
:10056400032000F02FF80020FFF7C6FF01F032FD52
:10057400002008BD003C0240034A1168034B1B786D
:100584000B441360704700BF0006002000000020E9
:10059400014B1868704700BF0006002038B50446B8
:1005A400FFF7F6FF0546B4F1FF3F02D0044B1B787A
:1005B4001C44FFF7EDFF401BA042FAD338BD00BF37
:1005C40000000020074AD36823F4E0631B041B0CDB
:1005D400000200F4E060034343F0BF6343F40033DC
:1005E400D360704700ED00E030B4174BDB68C3F311
:1005F4000223C3F10704042C28BF04241D1D062D67
:1006040018D9033B4FF0FF3505FA04F421EA04013D
:10061400994005FA03F322EA0303194300280BDB8C
:100624000901C9B200F1604000F5614080F800138F
:1006340030BC70470023E5E700F00F000901C9B2A0
:10064400024B1954F4E700BF00ED00E014ED00E0A4
:100654000138B0F1807F0AD2064B5860064AF02177
:1006640082F823100020986007221A607047012046
:10067400704700BF10E000E000ED00E000230F2B06
:1006840000F2D380F0B583B039E0062200E0002206
:10069400B2403A430234654E46F82420644A146852
:1006A400EA4324EA05064F6817F4803F01D045EA7F
:1006B40004065F4C2660646802EA04064F6817F477
:1006C400003F01D045EA0406594C6660A46802EA7A
:1006D40004064F6817F4801F01D045EA0406544C01
:1006E400A660E46822404E6816F4001F01D045EA73
:1006F40004024F4CE26001330F2B00F2948001227C
:100704009A400C6804EA020532EA0404F3D14C6806
:10071400661E012E03D9112C01D0122C12D1866829
:100724005F000324BC4026EA0406CC68BC40344382
:100734008460466826EA02064C68C4F300129A40B4
:1007440032434260C7685E000324B440E24327EAB0
:1007540004078C68B4403C43C4604C68022C01D04C
:10076400122C13D1DF08083750F827E003F00704F0
:100774004FEA840C0F2404FA0CF42EEA040E0C69DC
:1007840004FA0CF444EA0E0440F8274004681440C8
:100794004A6802F00302B240224302604A6812F03F
:1007A400805FA8D000220192224A546C44F4804411
:1007B4005464526C02F480420192019A9C08A61C73
:1007C4001A4A52F8267003F0030296000F22B24030
:1007D40027EA0207184A90423FF459AF02F58062B3
:1007E400904216D002F58062904214D002F58062E5
:1007F400904212D002F58062904210D002F58062DD
:1008040090420ED002F5806290423FF43EAF072240
:100814003EE701223CE702223AE7032238E70422BA
:1008240036E7052234E703B0F0BD704700380140D5
:10083400003C014000380240000002400AB18161DE
:100844007047090481617047436931EA030301D0A9
:100854008161704709048161704703685A6912F421
:10086400806F01D1002070476FF480625A610023C9
:100874000363202280F83D2080F83E30026C42F071
:100884000402026480F83C30012070472DE9F041F5
:1008940007460D4690461E4622E0FFF779FE069B6A
:1008A400C01AB04200D8DEB900233B63202287F887
:1008B4003D2087F83E303A6C42F020023A6487F8D3
:1008C4003C3001201AE03B689C6925EA0404A4B288
:1008D400B4FA84F46409A0450FD1B6F1FF3FDCD12A
:1008E400C5F30743012BEED13B685C6925EA040498
:1008F400A4B2B4FA84F46409EDE70020BDE8F08101
:100904002DE9F04105460E46174698463DE01A6823
:1009140042F400721A602B686FF480625A610023FB
:100924002B63202285F83D2085F83E302A6C42F066
:1009340004022A6485F83C30012034E0FFF728FEE5
:10094400A0EB0800B84200D8FFB900232B63202293
:1009540085F83D2085F83E302A6C42F020022A6456
:1009640085F83C3001201EE02B689C6926EA0404CB
:10097400A4B2003C18BF0124A4B12B685A6912F434
:10098400806FC4D1B7F1FF3FD8D1C6F30743012B21
:10099400EAD12B685C6926EA0404A4B2003C18BFBF
:1009A4000124E9E70020BDE8F0810000F0B583B040
:1009B40004460D4616461F46C36A082B0DD0012B6C
:1009C4000BD013F5803F08D0036B122B0AD10268B9
:1009D400136843F48073136004E02268136843F4DB
:1009E400807313600097334600224FF001112046B4
:1009F400FFF74CFF80B92369B3F5804F16D1236804
:100A040005F0FE051D613B46324613492046FFF7BB
:100A140077FFF8B903B0F0BD23681B6813F4807F37
:100A240002D04FF4007323640320F3E7EB11226830
:100A340003F0060343F0F00313613B4632460749D3
:100A44002046FFF75DFF18B92368EDB21D61DAE7B0
:100A54000120DFE70120DDE70200010008000100BA
:100A64002DE9F04184B004460D4616461F46C26A7D
:100A740001680B6843F480630B60082A0DD0012AD7
:100A84000BD012F5803F08D0036B112B0AD10268FA
:100A9400136843F48073136004E02268136843F41A
:100AA400807313600097334600224FF001112046F3
:100AB400FFF7ECFE98B92369B3F5804F19D1236889
:100AC40045F00105EDB21D613B4632462A492046F8
:100AD400FFF716FF00284CD104B0BDE8F08123686D
:100AE4001B6813F4807F02D04FF400732364032047
:100AF400F2E74FEAE51808F00608236848F0F00228
:100B04001A613B4632461D492046FFF7F9FE08B1FB
:100B14000120E1E72368EDB21D613B4632461649E8
:100B24002046FFF7EDFE08B10120D5E7002203922D
:100B3400236859690391996903910399196841F4E8
:100B440080711960009733464FF001112046FFF77A
:100B54009DFE20B9226848F0F1031361B4E72368CD
:100B64001B6813F4807F02D04FF4007323640320C6
:100B7400B2E70120B0E700BF020001000800010055
:100B840070B504460D46164623685B6913F0800F62
:100B94001CD12046FFF761FED0B9B5F1FF3FF3D079
:100BA400FFF7F6FC801BA84201D8002DECD10023EE
:100BB4002363202284F83D2084F83E30226C42F0E6
:100BC4002002226484F83C30012000E0002070BD43
:100BD4000120FCE770B504460D46164623685B69A0
:100BE40013F0040F1CD12046FFF737FED0B9B5F13E
:100BF400FF3FF3D0FFF7CCFC801BA84201D8002DA7
:100C0400ECD100232363202284F83D2084F83E3075
:100C1400226C42F02002226484F83C30012000E07F
:100C2400002070BD0120FCE770B505460C46164651
:100C34002B68596911F0400F29D1596911F0100F2F
:100C440015D1FFF7A5FC801BA04201D8002CEFD1E1
:100C540000232B63202285F83D2085F83E302A6C42
:100C640042F020022A6485F83C30012070BD6FF008
:100C740010025A6100232B63202285F83D2085F859
:100C84003E302A6C2A6485F83C300120EEE70020CF
:100C9400ECE70000002800F0CC80F8B5044690F89A
:100CA4003D30002B77D0242384F83D30226813682C
:100CB40023F0010313602268136843F400431360B4
:100CC4002268136823F40043136000F0A7FB6268F2
:100CD4005A4B9A4264D85A4B98428CBF0023012342
:100CE400002B40F0A880574DA5FB0035AF0C2668BB
:100CF400716821F03F0141EA9541716021680B6AF6
:100D040023F03F0365684D4A95424FD87A1C13433C
:100D14000B622568E96921F44F4121F0FF01636802
:100D2400464A93424CD801385B00B0FBF3F00130E3
:100D340040F6FC73184278D0C0F30B030B43EB610D
:100D440021680B6823F0C003E269206A024313435D
:100D54000B6021688B6823F4034323F0FF032269AB
:100D6400E068024313438B602168CB6823F0FF03E0
:100D74006269A06902431343CB602268136843F09D
:100D84000103136000202064202384F83D30206395
:100D940084F83E00F8BD80F83C3001F03BF982E76E
:100DA400294B98428CBF0023012399E74FF4967294
:100DB40002FB07F2254DA5FB025292090132A6E778
:100DC400A268BAB9461E03EB4307B6FBF7F6013631
:100DD400C6F30B06B6FA86F6760946BBC2B9421EBE
:100DE40003EB4303B2FBF3F20132C2F30B0242F40E
:100DF4000043A3E7461E03EB830707EB8707B6FB15
:100E0400F7F60136C6F30B06B6FA86F67609E4E77A
:100E1400421E03EB830303EB8303B2FBF3F20132C1
:100E2400C2F30B0242F4404388E7042386E701231C
:100E340084E7012070470120ACE700BFA0860100D1
:100E44007F841E0083DE1B43FF083D00D34D6210E8
:100E54002DE9F04385B004460F46914698460C9E12
:100E6400FFF796FB054694F83D00C0B2202804D055
:100E74000227384605B0BDE8F08300951923012206
:100E84004F492046FFF702FD002840F0928094F875
:100E94003C30012B00F08F80012384F83C30236820
:100EA4001A6812F0010F03D11A6842F001021A60A5
:100EB4002268136823F400631360212384F83D300F
:100EC400102384F83E3000232364C4F82490A4F84B
:100ED4002A80638D23853B4BE3622B463246394699
:100EE4002046FFF763FD0746002866D100230393DD
:100EF40023685A6903929B690393039B11E0236C53
:100F0400042B01D00127B4E72268136843F400736B
:100F14001360F7E72A4631462046FFF75BFE0028B8
:100F24002ED1238D002B36D02A4631462046FFF79A
:100F340027FE0028E3D1626A236812781A61616A85
:100F44004B1C6362638D9BB2013B9BB26385238D13
:100F5400013B9BB223852268506910F0040FD9D05D
:100F6400002BD7D04B781361636A01336362638DBE
:100F74009BB2013B9BB26385238D013B2385C9E76B
:100F8400236C042B01D0012773E72268136843F410
:100F940000731360F7E72268136843F40073136067
:100FA400202384F83D30002384F83E3084F83C301C
:100FB4005FE702275DE702275BE7012759E700BFE8
:100FC400020010000000FFFF2DE9F04387B0044643
:100FD4000F46914698460E9EFFF7DAFA054694F8B6
:100FE4003D00C0B2202804D00227384607B0BDE82F
:100FF400F0830095192301229E492046FFF746FC01
:10100400002840F0468194F83C30012B00F04381E5
:10101400012384F83C3023681A6812F0010F03D1CD
:101024001A6842F001021A602268136823F400630C
:101034001360222384F83D30102384F83E300023CB
:101044002364C4F82490A4F82A80638D23858A4BF2
:10105400E3622B46324639462046FFF701FD074638
:10106400002840F01A81238D5BB9029323685A69E2
:1010740002929A690292029A1A6842F400721A6001
:101084009DE0012B0FD0022B1FD02268136843F47C
:10109400806313600023059323685A6905929B6952
:1010A4000593059B8BE02268136823F48063136027
:1010B4000023039323685A6903929A690392039A5B
:1010C4001A6842F400721A6079E02268136823F403
:1010D400806313602268136843F400631360002381
:1010E400049323685A6904929B690493049B66E001
:1010F4002A4631462046FFF797FD002840F0CF806E
:1011040023681A69636A1A70636A01336362238D00
:10111400013B2385638D9BB2013B9BB263854EE00B
:1011240000953346002255492046FFF7AFFB0028BF
:1011340040F0B7802268136843F400731360236897
:101144001A69636A1A70626A531C6362238D013BD5
:101154002385638D9BB2013B9BB2638523681B6926
:101164005370636A01336362238D013B2385638D6E
:101174009BB2013B9BB2638521E02268136843F470
:101184000073136023681A69636A1A70626A531CD5
:101194006362238D013B2385638D9BB2013B9BB22C
:1011A400638523681B695370636A01336362238D0B
:1011B400013B2385638D9BB2013B9BB26385238DE9
:1011C400002B5DD0032B2BD8012B91D0022BA7D061
:1011D40000953346002229492046FFF757FB002893
:1011E40061D12268136823F48063136023681A6949
:1011F400636A1A70636A01336362238D013B23853A
:10120400638D9BB2013B9BB26385009533460022FC
:101214001A492046FFF73AFB0028AED00127E4E63E
:101224002A4631462046FFF7FFFC00283DD12368BB
:101234001A69636A1A70626A531C6362238D013BE4
:101244002385638D9BB2013B9BB2638523685969F7
:1012540011F0040FB3D01B695370636A01336362E6
:10126400238D013B2385638D9BB2013B9BB2638538
:10127400A5E700BF020010000000FFFF040001000A
:10128400202384F83D30002384F83E3084F83C3039
:10129400ABE60227A9E60227A7E60127A5E6012770
:1012A400A3E60127A1E601279FE601279DE600BFEB
:1012B400002800F09B8070B50D4604464F4B1B6818
:1012C40003F00F038B4208D2CBB24C4A137013685D
:1012D40003F00F038B4240F08B80236813F0020F5E
:1012E40017D013F0040F04D0454A936843F4E05335
:1012F4009360236813F0080F04D0414A936843F4C1
:10130400604393603E4A936823F0F003A1680B4363
:101314009360236813F0010F32D06368012B21D04E
:101324009A1E012A25D9364A126812F0020F61D09A
:1013340033498A6822F0030213438B60FFF728F9CC
:1013440006462F4B9B6803F00C036268B3EB820FD5
:1013540016D0FFF71DF9801B41F288339842F0D96B
:10136400032042E0264A126812F4003FE0D1012033
:101374003BE0234A126812F0007FD9D1012034E007
:101384001E4B1B6803F00F03AB4207D9EAB21B4B99
:101394001A701B6803F00F03AB422DD1236813F0BE
:1013A400040F06D0164A936823F4E053E1680B4314
:1013B4009360236813F0080F07D0114A936823F44D
:1013C4006043216943EAC103936000F047F80C4B82
:1013D4009B68C3F303130B4AD35CD8400A4B1860D1
:1013E4000A4B1868FFF788F8002070BD0120704789
:1013F4000120FAE70120F8E70120F6E7003C02406B
:101404000038024080350008B001002004000020AC
:10141400014B1868704700BFB001002008B5FFF702
:10142400F7FF044B9B68C3F38223034AD35CD84081
:1014340008BD00BF003802409035000808B5FFF72A
:10144400E7FF044B9B68C3F34233034AD35CD840A1
:1014540008BD00BF00380240903500082DE9F8436C
:10146400594B9B6803F00C03082B08D00C2B5BD062
:10147400042B02D05548BDE8F8835548FBE7524B8E
:101484005A6802F03F025B6813F4800F2BD04E4B76
:101494005B68C3F3881358010021C01A61F100018D
:1014A4008C0144EA90648501B5EB000864EB010902
:1014B4004FEAC90141EA58714FEAC800C01841F126
:1014C40000014B0243EAD05344022046194600234C
:1014D400FEF796FE3C4B5B68C3F3014301335B00AC
:1014E400B0FBF3F0C7E7384B5B68C3F388135801CC
:1014F4000021C01A61F100018C0144EA9064850165
:101504002E1A64EB0107F90041EA5671F000C01885
:1015140041F100018B0243EA9053840220461946AC
:101524000023FEF76DFED5E7274B5A6802F03F0211
:101534005B6813F4800F26D0234B5B68C3F38813D6
:1015440058010021C01A61F100018E0146EA90663B
:1015540087013C1A66EB0105E90041EA5471E00099
:10156400C01841F100014B0243EAD0534402204623
:1015740019460023FEF744FE134B5B68C3F3027362
:10158400B0FBF3F077E7104B5B68C3F388135C019F
:101594000025E41A65F10005AE0146EA9466A70148
:1015A400381B66EB0501CC0044EA5074C500E8180A
:1015B40044F100018B0243EA905384022046194609
:1015C4000023FEF71DFED7E7003802400024F40094
:1015D40000127A0070B582B00446036813F0010F5C
:1015E40041D0A64B9B6803F00C03042B32D0A34BD1
:1015F4009B6803F00C03082B27D0A04B9B6803F0D7
:101604000C030C2B59D06368B3F5803F5BD0B3F562
:10161400A02F5ED0994B1A6822F480321A601A689F
:1016240022F480221A606368002B5CD0FEF7B0FFBE
:101634000546924B1B6813F4003F14D1FEF7A8FF34
:10164400401B6428F5D903209FE18C4B5B6813F49D
:10165400800FD2D0894B1B6813F4003F03D063681A
:10166400002B00F08D81236813F0020F60D0834BB0
:101674009B6813F00C0F4AD0804B9B6803F00C035B
:10168400082B3FD07D4B9B6803F00C030C2B68D0D8
:10169400E368002B74D07A4B01221A60FEF778FFBE
:1016A4000546764B1B6813F0020F60D1FEF770FFFE
:1016B400401B0228F5D9032067E1704B5B6813F4E3
:1016C400800FA0D0C6E76D4A136843F480331360DB
:1016D400A9E76A4B1A6842F480221A601A6842F435
:1016E40080321A609FE7FEF753FF0546634B1B6881
:1016F40013F4003FB7D0FEF74BFF401B6428F5D925
:10170400032042E15D4B5B6813F4800FBAD15B4B5D
:101714001B6813F0020F03D0E368012B40F0328101
:10172400564A136823F0F803216943EAC10313609E
:10173400236813F0080F47D06369002B32D0514B54
:1017440001221A60FEF724FF05464C4B5B6F13F031
:10175400020F39D1FEF71CFF401B0228F5D90320E4
:1017640013E1464B5B6813F4800F91D1CFE7434AF2
:10177400136823F0F803216943EAC1031360D7E730
:101784003F4B00221A60FEF703FF05463B4B1B68E4
:1017940013F0020FCCD0FEF7FBFE401B0228F5D954
:1017A4000320F2E0374B00221A60FEF7F1FE0546F3
:1017B400324B5B6F13F0020F06D0FEF7E9FE401BBD
:1017C4000228F5D90320E0E0236813F0040F79D050
:1017D4002A4B1B6C13F0805F0DD100230193274B20
:1017E4001A6C42F080521A641B6C03F0805301930C
:1017F400019B012500E00025234B1B6813F4807F27
:1018040021D0A368012B32D0052B3FD01B4B1A6F7C
:1018140022F001021A671A6F22F004021A67A36801
:10182400002B3DD0FEF7B4FE0646144B1B6F13F09D
:10183400020F46D1FEF7ACFE801B41F2883398427A
:10184400F3D90320A1E0104A136843F480731360B2
:10185400FEF79EFE06460C4B1B6813F4807FD0D126
:10186400FEF796FE801B0228F5D903208DE0034A7B
:10187400136F43F001031367D1E700BF0038024040
:1018840000004742800E474200700040414B1A6FEF
:1018940042F004021A671A6F42F001021A67BEE7A7
:1018A400FEF776FE06463B4B1B6F13F0020F08D083
:1018B400FEF76EFE801B41F288339842F3D9032071
:1018C40063E0E5B9A369002B5ED0324A926802F066
:1018D4000C02082A5BD0022B17D02F4B00221A606F
:1018E400FEF756FE04462B4B1B6813F0007F45D0D1
:1018F400FEF74EFE001B0228F5D9032045E0254AD9
:10190400136C23F080531364DCE7234B00221A602A
:10191400FEF73EFE05461F4B1B6813F0007F06D002
:10192400FEF736FE401B0228F5D903202DE0E369BB
:10193400226A1343626A43EA8213A26A5208013A92
:1019440043EA0243E26A43EA0263226B43EA027314
:10195400104A5360104B01221A60FEF719FE044628
:101964000C4B1B6813F0007F06D1FEF711FE001B21
:101974000228F5D9032008E0002006E0002004E056
:10198400012002E0012000E0002002B070BD01202F
:10199400FBE700BF003802406000474270B50446D0
:1019A4000268136923F44053C1680B4313618368CD
:1019B4000269134342691343C2691A430168CB683D
:1019C40023F4164323F00C031343CB6002685369DA
:1019D40023F4407381690B435361C369B3F5004F2A
:1019E40036D00368654A934200F09A8002F580621B
:1019F400934200F09580FFF711FD0026051846EB91
:101A040006012D1846EB0101CB0043EA5573EA00A9
:101A14001546194663689A009B0F281846EB010186
:101A2400FEF7EEFB564DA5FB00325109642303FB80
:101A340011031B013233A5FB03235B0903F0F002FE
:101A440002EB011203F00F03216813448B6093E04F
:101A540003684A4A934233D002F5806293422FD0FE
:101A6400FFF7DCFC0026051846EB06012D1846EBB3
:101A74000101CB0043EA5573EA0015461946626832
:101A84003346921846EB0303281846EB0101FEF790
:101A9400B7FB3B4DA5FB00325109642303FB110343
:101AA400DB003233A5FB03235B095A0002F4F8720E
:101AB40002EB011203F00703216813448B605BE01F
:101AC400FFF7BCFC0026051846EB06012D1846EB73
:101AD4000101CB0043EA5573EA00154619466268D2
:101AE4003346921846EB0303281846EB0101FEF730
:101AF40087FB234DA5FB00325109642303FB11032B
:101B0400DB003233A5FB03235B095A0002F4F872AD
:101B140002EB011203F00703216813448B602BE0EE
:101B2400FFF78CFC0026051846EB06012D1846EB42
:101B34000101CB0043EA5573EA0015461946636870
:101B44009A009B0F281846EB0101FEF759FB0C4D38
:101B5400A5FB00325109642303FB11031B0132333B
:101B6400A5FB03235B0903F0F00202EB011203F06F
:101B74000F03216813448B6070BD00BF0010014047
:101B84001F85EB5158B310B5044690F839300BB3A8
:101B9400242384F839302268D36823F40053D360B3
:101BA4002046FFF7FBFE2268136923F49043136178
:101BB4002268536923F02A0353612268D36843F4EB
:101BC4000053D3600020E063202384F8393084F884
:101BD4003A3010BD80F8383000F056FAD8E70120CA
:101BE4007047000030B58BB0002405940694079428
:101BF400089409940194234B1A6B42F004021A636B
:101C04001A6B02F004020192019A02941A6B42F0D8
:101C140080021A631A6B02F080020292029A039401
:101C24001A6B42F001021A631A6B02F0010203926A
:101C3400039A04941A6B42F002021A631B6B03F0BA
:101C440002030493049B104D22464FF4C1512846CD
:101C5400FEF7F4FD4FF4005305930C4B06930794E1
:101C640005A90B48FEF70AFD4FF4C1530593012360
:101C740006930794089405A92846FEF7FFFC0BB0C9
:101C840030BD00BF003802400000024000002110B7
:101C94000008024008B50948094B0360094B43603A
:101CA40000238360C3604FF4804202614361836117
:101CB400C3610362FEF7EEFF08BD00BF2C060020DF
:101CC40000540040A086010008B50848084B036092
:101CD4004FF4E133436000238360C36003610C224B
:101CE40042618361C361FFF74DFF08BDA806002070
:101CF4000044004030B583B00C46134690F8D01031
:101D04006422009222460848FFF7A2F804460546DA
:101D140018B934B9284603B030BD034800F07AF945
:101D2400F7E74FF0FF35F5E72C06002030B583B018
:101D34000C46134690F8D0106422009222460848BC
:101D4400FFF742F90446054618B934B9284603B0EA
:101D540030BD034800F05EF9F7E74FF0FF35F5E7D3
:101D64002C06002008B5FEF719FC08BD30B595B067
:101D74003422002107A801F035FB002402940394C7
:101D840004940594069400941B4B1A6C42F0805200
:101D94001A641B6C03F080530093009B0194174A50
:101DA400136823F4404343F480431360136803F43B
:101DB40040430193019B0225079501230A931023B5
:101DC4000B930D950E940F934FF4A8731093042363
:101DD40011931295139507A8FFF7FCFB0F230293A9
:101DE400039504944FF4805305930694294602A85E
:101DF400FFF75EFA15B030BD0038024000700040B5
:101E04002DE9F04184B0FEF79DFBFFF7AFFFFFF72C
:101E1400E9FEFFF73FFFFFF757FF002634461FE0B8
:101E24004FF400616648FEF70FFD1DE04FF480514A
:101E34006348FEF709FD19E00120FFF793FF0DF158
:101E440007020021284601F006FA0120FFF78AFF65
:101E5400284601F06BF80021284601F0A2F801346D
:101E6400012C31DC002CDBD0012CDFD00220FFF769
:101E740079FF544BD42505FB0435522385F8D03023
:101E84000DF107020021284601F0E5F90028E6D10A
:101E940095F8D22042F0010285F8D22004AB03EB7E
:101EA400860343F8084C0136284601F017F904F17B
:101EB4002A077F00522FBFD0FFB23946284600F0D0
:101EC4008FFC85F8D070B7E71E20FEF767FB74E03F
:101ED40004AB03EB850353F8084CD422394B02FBC3
:101EE4000434204600F041FE94F8D2306FF34103ED
:101EF40084F8D2300135B542EADB4FF0000857E0F0
:101F040004EB8407DFF8C4C02F4B03EBC7070FCFE4
:101F1400ACE80F000FCFACE80F0097E803008CE8A3
:101F240003002DE004EB8407DFF8A4C0264B03EB89
:101F3400C7070FCFACE80F000FCFACE80F0097E84E
:101F440003008CE803001DE00134B4422EDA04AB34
:101F540003EB840353F8085CD4221A4B02FB0535C7
:101F640095F8D23013F0020FEED104EB8401164B36
:101F740003EBC101284601F08DF88646002CBFD042
:101F8400012CCFD0BEF1000FDED104EB84030E4A46
:101F940002EBC3039B68122BD6D095F8D23043F0E2
:101FA400020385F8D23008F10108CDE7464501DD8A
:101FB4000024CAE70A20FEF7F1FA00259BE700BFD8
:101FC4000000024008000020E806002080060020EF
:101FD4000406002000B583B0002100910C4B5A6C1C
:101FE40042F480425A645A6C02F480420092009A8D
:101FF40001911A6C42F080521A641B6C03F08053F6
:102004000193019B0720FEF7DDFA03B05DF804FBA2
:102014000038024030B589B000230393049305933C
:10202400069307930268154B9A4201D009B030BD5C
:1020340000250195124C236B43F002032363236BA9
:1020440003F002030193019BC0230393122304931F
:1020540001230593032306930423079303A9094843
:10206400FEF70CFB0295236C43F400132364236CEA
:1020740003F400130293029BD8E700BF005400400E
:10208400003802400004024000B589B000230393E5
:1020940004930593069307930268154B9A4202D062
:1020A40009B05DF804FB0022019203F5FA33196CC0
:1020B40041F400311964196C01F400310191019962
:1020C4000292196B41F0010119631B6B03F00103C8
:1020D4000293029B0C23039302230493059203238C
:1020E40006930723079303A90248FEF7C7FAD7E725
:1020F40000440040000002407047FEE7FEE7FEE7B0
:10210400FEE770477047704708B5FEF735FA08BD1B
:10211400054BD3F8882042F47002C3F888204FF0AE
:1021240000629A60704700BF00ED00E001460023A2
:10213400C36143668366C36603674367A0F8603080
:102144008367092B0EDC03F1100201EB42024FF608
:10215400FF70908003F10C0201EB8202002090607A
:102164000133EEE700200862704770B4049D98B113
:10217400642404FB01F1B1FBF0F189B299420FD25E
:10218400A9420CD9481B03998A1A02FB00F25B1B73
:10219400B2FBF3F28A1A03E042F20F71EEE7039AFC
:1021A400104670BC704730B583B004460DF1070289
:1021B40040F2091101F04FF8B0B99DF8070000F0A2
:1021C40007050DF107024FF48571204601F043F82D
:1021D40068B99DF8070000EB800040005E3005FB05
:1021E4000000C83003B030BD4FF0FF30FAE74FF0C5
:1021F400FF30F7E7F0B583B00446068945890DF151
:1022040003021C2101F027F808B103B0F0BD9DF8CA
:1022140003702046FFF7C7FF00281EDB4FF47A72D5
:1022240002FB07F2171A01AAB821204601F04DF863
:102234000028EAD1019A1202019206FB02F24FF43D
:10224400FA7000FB02F207FB05F0B2FBF0F292B267
:102254002221204600F0AEFFD7E74FF0FF30D4E74D
:102264002DE9F04F8DB0044603911F46BDF85CC0C4
:10227400037EC3EB03210691ACF10C01032911D8B1
:10228400DFE801F01902190203EB830303EB830374
:10229400DB009BB20393012304934FF0100A4FF029
:1022A400000B0DE0069B9A4231D3002304939A4617
:1022B4004FF0010B04E0002304934FF0100A9B46F7
:1022C4006668D4F8C08006F5487EB42303FB08F39F
:1022D400DB08C14DA5FB031306EB930340F2523018
:1022E40000FB08F0C008A5FB001006EB90004FF4BB
:1022F400AF6101FB08F1C908A5FB015106EB91068A
:102304003B2A0AD8BE451AD84FF0000907E001233A
:1023140004934FF0000AD346D2E74FF00009A42AF1
:1023240005D8BB4203D94FF010094FF0010BA42A82
:102334000AD89633BB4226D80023059306E04FF013
:1023440010094FF0010BEAE70023059343F69823A5
:10235400169999421AD84FF000084A2F02D84FF024
:102364000108C346A36B4BB1BB4213D2FD1A6421CF
:1023740001FB05F1B1FBF3F1322912D8B8F1000FDA
:1023840011D1092362E001230593DFE74FF001082F
:10239400C346E2E7DD1B642101FB05F1B1FBF3F168
:1023A400EAE74FF001080023E361092B0FD803F19A
:1023B400100104EB41014FF6FF758D8003F10C0110
:1023C40004EB810100258D6001339BB2EDE700230E
:1023D4002362049B002B3CD14FF6FF73A384A763B5
:1023E400236A01332362B2F5AF7F01D2B84205D824
:1023F400B2F5AF7F30D3BE4240F2B480BAF1000FE1
:1024040000F0B480BCF10C0F00F0B380BCF10E0FEF
:1024140000F0B580002307934FF0010B1FE0591E15
:1024240003F10F0504EB4505B5F804E003F11005CD
:1024340004EB4505A5F804E003F10B0504EB850561
:10244400AD680C3304EB83039D608BB2002BE6D1A3
:10245400BFE7039BA384C2E7012307939B460DF1C7
:1024640027024FF4D671204600F0F5FE002840F014
:10247400A6819DF827A008230AAA4FF48671204656
:1024840000F04AFF002840F09D819DF828309DF817
:102494002960360406EB03669DF82A3006EB032612
:1024A4009DF82B301E449DF82C309DF82D502D04A2
:1024B40005EB03659DF82E3005EB03259DF82F30C1
:1024C4001D44B8F1000F63D1BBF1000F5DD1BAF127
:1024D4003E0F72D0E6662567E36913F0010F6FD1F2
:1024E4003C238DF827309DF827204FF4D6712046E1
:1024F40000F050FE002840F06881E3690133E36195
:10250400BBF1000F60D1A26E236F9A426AD9D21A2E
:102514006267059B002B67D14FF4E161606EE36E47
:10252400984264D9C31A8B4263D9581A0B44824225
:10253400C0F0D8809A4200F2E980E369012B5AD9AD
:102544000325052301934FF4617300931E23962200
:1025540039461698FFF709FE5A465B464FF0000CC1
:10256400674655E0012307939B4678E701230793C9
:1025740075E7D146002307934FF0010B6FE7D1466F
:10258400002307934FF0010B69E7079B002B9ED0B4
:10259400BAF13E0F06D16666A566E6662567002396
:1025A400E361ADE73E224FF4D671204600F0F2FD20
:1025B4000028F0D04FF0FF30FAE06666A5668BE79E
:1025C4003E238DF827308EE7C4F87C90B9F1100FC4
:1025D40004D00398ECE000BF1BA4411ABDF81830E6
:1025E4000393F6E7002293E74FF4617196E71B1A11
:1025F40099E700209AE70525A3E7013292B2374410
:1026040003F10C0104EB810189688C4401339BB212
:10261400092B0BD8052A09D803F1100104EB410159
:102624008E884FF6FF718E42E7D1EFE742B1B7FBD8
:10263400F2F7BCFBF2F15A465B460026B04614E0C2
:1026440000210F46F7E7013292B2AEEB070C0CFB08
:102654000C8803F10C0C04EB8C0CDCF808C0ACEB1C
:10266400010C0CFB0C6601339BB2092B0CD8052A18
:102674000AD803F1100C04EB4C0CBCF804E04FF640
:10268400FF7CE645DFD1EEE7954225D8B8FBF2F8AA
:102694001FFA88F8B6FBF2F6B6B295423BD840F67C
:1026A400AB539E421BD8C0F56A61063106FB01F1AB
:1026B400474BA3FB013100EBD121E36F03B9890040
:1026C400B0EBC80F01D9052A2AD888452BD25A461F
:1026D4005B464FF0010B09E00026B046DDE740F60B
:1026E400A661EAE75A4601234FF010090499F9B9A3
:1026F400B4F8603013B1013BA4F86030E36F002BF1
:1027040050D1B9F1000F4DD0012349E05A460123BD
:102714004FF01009EAE75A465B464FF01009E5E727
:102724005B460122E2E75A4601234FF01009DDE738
:10273400012B08D0BBF1000F11D1012ADED10023F7
:10274400A4F86030DAE7B4F8603002339BB2A4F83E
:102754006030042BD2D90423A4F86030CEE7B4F857
:102764006030002BCAD0012B05D9013BA4F860309E
:102774004FF01009C2E70023A4F860304FF01009AD
:10278400BCE703F1100204EB42024FF6FF719180A3
:1027940003F10C0204EB82020021916001339BB22D
:1027A400092BEED9C4F87C90B9F1100F03D003982B
:1027B4000DB0BDE8F08FBDF818300393F7E74FF084
:1027C400FF30F5E74FF0FF30F2E74FF0FF30EFE76F
:1027D4001BECCB9508B50268DA2100F0FEFC08BDBD
:1027E40008B54A0840F2122100F0D4FC08BD0429BF
:1027F40008D808B5C90001F0F803C722142100F075
:1028040005FD08BD6FF00100704738B50446154654
:102814000A463C2100F0BEFC00B138BD2A463A21EC
:10282400204600F0B7FCF8E738B5054601F0BF04D0
:10283400072C00D9072444F040023F21284600F029
:10284400A9FC00B9AC8238BD08B540F6F51399422D
:1028540001D940F6F611044AA2FB0132C2F3C702C1
:102864003E2100F097FC08BDCDCCCCCC38B5054654
:102874000C4609B14C1EA4B2B4F5E87F04D8FF2C71
:1028840004D10134A4B201E04FF4E874224640219B
:10289400284600F08FFC00B96C8238BD08B590F86A
:1028A4008030B3B14C2914D9812912D8A1F14D0338
:1028B40033310144184490F881008B781B0443EAB7
:1028C4000063C87843EA002309790B4313600020AE
:1028D40001E000F0FAFC08BD30B585B005460C46B1
:1028E4000023039302930193009302AA6C21FFF740
:1028F400D5FF40B9029B002B07DB01AA74212846AF
:10290400FFF7CCFF20B105B030BD00230293F4E7FC
:1029140003AA7C212846FFF7C1FF0028F3D16A46A9
:1029240080212846FFF7BAFF0028ECD1039B63619E
:10293400009AA261934200D813460BB94FF2186370
:10294400029A4FF47A7101FB02F1B1FBF3F1019D9C
:1029540041F2707202FB05F2B2FBF3F32161E36012
:10296400D1E708B590F8803083B14C290ED983297A
:102974000CD8A1F14D0333310144184490F881007F
:102984008B7843EA00231380002001E000F07EFCF2
:1029940008BD08B590F8803053B14C2908D9842972
:1029A40006D84D39014491F881301370002001E0BC
:1029B40000F051FC08BDF0B585B007460C46057E15
:1029C4000DF10F026421FFF7E4FF064610B1304613
:1029D40005B0F0BD9DF80F3005FB03F52389019385
:1029E400E368009323692A4621883846FFF738FCB8
:1029F400002804DB20846584FB6F6362E7E74FF003
:102A0400FF36E4E708B590F880300BB1002008BD2C
:102A1400012380F88030382300F181024D2100F039
:102A24007BFCF4E7002380F88030704730B583B036
:102A340005460C460DF107026221FFF7AAFF28B9EB
:102A44002B7E9DF8072003FB02F3236003B030BD07
:102A540038B504460D46192100F09CFB00B138BD81
:102A64002A461A21204600F095FBF8E710B582B0FB
:102A74000C460DF107024F21FFF78BFF9DF807303D
:102A840003F0C703237002B010BD072905D808B5A9
:102A94000A46152100F07EFB08BD6FF00100704767
:102AA400042906D808B50B46F822142100F0AEFB21
:102AB40008BD6FF00100704708B529B10123FE225B
:102AC4002D2100F0A3FB08BD0023F8E738B54B1E09
:102AD400DBB2022B38D804460D464B1E1C4A32F892
:102AE4001320962100F066FB257694F9CD2092FB05
:102AF400F5F2D2B22421204600F04CFBA0B168B913
:102B0400237C5BB1A289237E92FBF3F2FF2A00D9D6
:102B1400FF22D2B22521204600F03CFB60B110B95F
:102B2400012D00D0032038BD142292FBF5F221219F
:102B3400204600F02FFBE2E7012D14BF0021012104
:102B44002046FFF7B9FFEAE76FF00100EBE700BFAB
:102B540098350008032905D808B50A46182100F05D
:102B640019FB08BD6FF00100704708B50121FFF79C
:102B7400F1FF08BD02464FF08043934201D99B0800
:102B8400FBE7002001E040089B0833B1C1189142E3
:102B9400F9D8521A03EB5000F6E7704738B5D0F86D
:102BA400BC20D0F8C450D0F8C0400B1E17DD0E492D
:102BB40091FBF3F1A1F5F271002913DDB1F5005F8A
:102BC40007DA01FB04F15019B1FBF0F0FFF7D2FF73
:102BD40038BD5019B1FBF0F101FB04F0F6E76FF0DA
:102BE4000040F5E70020F3E7006889092DE9F0418A
:102BF40084B007460DF10F022A2100F02CFB044695
:102C0400002870D19DF80F3023B928238DF80F3098
:102C1400012600E006469DF80F204FF47A7303FB6B
:102C240002F3DD090DF106022D21384600F013FBF5
:102C34000446002858D10DF107021C21384600F043
:102C44000AFB044600284FD102AAB821384600F0F6
:102C54003CFB0446002847D10DF105022C213846DF
:102C640000F0F9FA044600283ED19DF805204FF4FF
:102C74007A5393FBF2F3C7F8C430D7F80480454580
:102C84001ED3C7F8C0509DF8063013F0020F1BD1B5
:102C94000022029B1B029DF807100439B3FBF1F3D9
:102CA400A2EB08029A4200DA1A469DF8053003FBAB
:102CB40002F211093846FFF771FFA7F8C80013E0C4
:102CC4000023C7F8C030DEE703AA2621384600F007
:102CD400DDFA044640B9BDF80C304FF47A7202FBB9
:102CE40003F2D209D5E7002604B12646304604B0E3
:102CF400BDE8F08110B504460A461C2100F04AFAEA
:102D040000B110BD2046FFF775FA0028F9D120461E
:102D1400FFF76CFFF5E710B50446012240F20721E6
:102D240000F038FA01224FF40271204600F032FA22
:102D340000229621204600F02DFA542297212046A5
:102D440000F028FA0022E321204600F023FA0422AE
:102D5400E421204600F01EFA0222E521204600F07C
:102D640019FA0122E621204600F014FA0322E72191
:102D7400204600F00FFA0222F521204600F00AFA5C
:102D84000522D921204600F005FA2046FFF722FD4E
:102D940000229F21204600F0FDF92822A32120468D
:102DA40000F0F8F90022B721204600F0F3F92822B8
:102DB400BB21204600F0EEF90922B221204600F0A2
:102DC400E9F90922CA21204600F0E4F901224FF46E
:102DD400CC71204600F0DEF917224FF4D87120465A
:102DE40000F0D8F9002240F2AD11204600F0D2F9EB
:102DF4000522FF21204600F0CDF905224FF4807111
:102E0400204600F0C7F9052240F29911204600F04F
:102E1400C1F91B224FF4D371204600F0BBF93E22C6
:102E24004FF4D671204600F0B5F91F2240F2A711E5
:102E3400204600F0AFF900223021204600F0AAF924
:102E440010221121204600F0A5F930224FF485719B
:102E5400204600F09FF946223F21204600F09AF9CF
:102E6400FF223121204600F095F9632240212046BB
:102E740000F090F901222E21204600F08BF9FF2268
:102E84002C21204600F086F909221B21204600F05F
:102E940081F931223E21204600F07CF924221421BC
:102EA400204600F077F932212046FFF723FF002067
:102EB40010BD38B50446FFF72EFF054608B1284675
:102EC40038BD217E2046FFF701FE0546002216216B
:102ED400204600F05FF9F2E770B582B00546FFF7CF
:102EE400E8FF041E1EDB0DF107024FF49071284623
:102EF40000F0B1F9064618B1AEB9A4B1264612E005
:102F04009DF80730EB820DF107023F21284600F0BF
:102F1400A2F906460028EFD19DF807102846FFF7CE
:102F240083FCE9E70026304602B070BD10B50446C4
:102F3400FFF7D2FF002800DA10BD04212046FFF776
:102F4400AFFD0028F8D1C8220A212046FFF780FDF2
:102F54000028F1D164212046FFF788FC0028EBD13A
:102F6400C8212046FFF770FC0028E5D10021204647
:102F7400FFF75AFC0028DFD1FF2200212046FFF78B
:102F840044FC0028D8D104212046FFF730FC002857
:102F9400D2D12046FFF7CAF807212046FFF775FD76
:102FA400CAE708B50346084683F8CC1001B908BD42
:102FB4001846FFF71BFEFAE738B50C46C9680D4BF7
:102FC400994203D90023E361002038BD0546FFF789
:102FD400E5FD2B7E013B084A32F81320B5F8C830D2
:102FE400834200DB034611469A4200DB1946E16145
:102FF400EAE700BF0F090500A035000870B582B0EC
:1030040004460E46FFF7FEFC054628B12046FFF7AE
:1030140009FD284602B070BD31462046FFF706FD83
:1030240005460028F2D10DF1060266212046FFF77D
:1030340098FC05460028E9D1BDF8063073600DF10F
:1030440005024D212046FFF7A4FC18B99DF8053070
:103054001B09B36031462046FFF73EFC05460028B5
:10306400D4D1637E43B994F8CC30002BCED0314612
:103074002046FFF7A1FFC9E731462046FFF79BFC36
:1030840005460028EFD1736A002BECD0B360338C73
:103094003360E8E730B583B005460C4601A9FFF775
:1030A400E5FC68B99DF8043003F00702042A02D055
:1030B40013F0C00F0BD021462846FFF79FFF08B13D
:1030C40003B030BD01212846FFF7DFFCF8E71223E7
:1030D400A360F5E75023C0F8BC30704770B584B0E6
:1030E400044655230381642242810023037401238F
:1030F400037642828382C382437680F8CC30FFF722
:10310400E9FF0DF10F022421204600F0A4F8054642
:1031140010B1284604B070BD9DF80F3084F8CD304E
:1031240002AA2621204600F0D0F805460028F0D156
:10313400BDF80A300BB9164B0293029B23600DF1C4
:1031440006021E21204600F0A1F805460028E0D121
:10315400BDF806204FF47A7303FB02F3DB096360C6
:103164002046FFF743FD061ED3DB0DF10E021621A8
:10317400204600F070F805460028CAD19DF80E30AC
:10318400012B01D00125C4E7002EC2D00125C0E7E0
:10319400F803CE0000B583B00B0A8DF800308DF82B
:1031A40001108DF8022003226946FEF7A3FD03B047
:1031B4005DF804FB00B583B00B0A8DF800308DF880
:1031C4000110130A8DF802308DF803200422694699
:1031D400FEF790FD03B05DF804FB00B583B00B0A65
:1031E4008DF800308DF80110130E8DF80230130C99
:1031F4008DF80330130A8DF804308DF8052006226B
:103204006946FEF777FD03B05DF804FBF0B583B0C3
:10321400044617461E460D0A8DF800508DF801101D
:1032240002226946FEF766FD08B103B0F0BD012233
:103234000DF102012046FEF779FD0028F5D19DF835
:1032440002303B4033438DF8023003226946204666
:10325400FEF750FDE9E730B583B0044615460B0A86
:103264008DF800308DF8011002226946FEF742FD08
:1032740008B103B030BD012269462046FEF756FD71
:103284000028F6D19DF800302B70F2E730B583B0FA
:10329400044615460B0A8DF800308DF80110022201
:1032A4006946FEF727FD08B103B030BD0222694626
:1032B4002046FEF73BFD0028F6D19DF800209DF83E
:1032C400013043EA02232B80EEE730B583B0044695
:1032D40015460B0A8DF800308DF80110022269465C
:1032E400FEF708FD08B103B030BD0422694620464C
:1032F400FEF71CFD0028F6D19DF800209DF8013052
:103304001B0443EA02639DF8022043EA02239DF86A
:10331400032013432B60E6E770B582B004461546DC
:103324001E460B0A8DF800308DF801100222694602
:10333400FEF7E0FC08B102B070BDF2B229462046A7
:10334400FEF7F4FCF7E70000DFF834D0002103E0D7
:103354000C4B5B58435004310B480C4B42189A42B7
:10336400F6D30B4A02E0002342F8043B094B9A428D
:10337400F9D3FEF7CDFE00F011F8FEF741FD7047DA
:1033840000000220C035000800000020E4050020F1
:10339400E40500205C070020FEE7000070B50D4E38
:1033A4000D4D761BB61006D0002455F8043B0134AD
:1033B4009847A642F9D1094E094D761B00F0D2F880
:1033C400B61006D0002455F8043B01349847A642B1
:1033D400F9D170BDB4350008B4350008BC35000817
:1033E400B4350008F0B4860746D0541E002A3CD0F9
:1033F400CAB2034601E0013C37D303F8012B9D0711
:10340400F9D1032C2AD9CDB245EA05250F2C45EA7A
:10341400054534D9A4F1100222F00F0C03F1200762
:103424001609674403F1100242E9045542E90255C2
:103434001032BA42F8D1721C14F00C0F03EB0212D2
:1034440004F00F0613D0331F23F003030433134493
:1034540042F8045B9342FBD106F003042CB1CAB2D8
:103464001C4403F8012B9C42FBD1F0BC704734464A
:103474001346002CF3D1F8E714460346C1E71A4675
:103484002646E0E7024B13B1024800F005B8704746
:1034940000000000A9340008002301461A4618461B
:1034A40000F01AB838B5084B084D5B1B9C1007D0C8
:1034B400043B1D44013C55F804399847002CF9D1CC
:1034C400BDE8384000F054B8C0350008BC350008E9
:1034D400704700BF704700BF2DE9F047DFF880A0B8
:1034E4000646DAF8000098460F469146FFF7F0FFCB
:1034F4001A4B1B68D3F8484124B365681F2D26DC9A
:103504005EB9AB1C0135DAF80000656044F823703D
:10351400FFF7E0FF0020BDE8F08704EB85030121FD
:10352400C3F88890D4F88821A9400A43022EC4F82D
:103534008821C3F80881E4D1D4F88C311943C4F844
:103544008C11DEE703F5A674C3F84841D5E7DAF831
:103554000000FFF7BFFF4FF0FF30DCE7A83500089D
:10356400E0050020F8B500BFF8BC08BC9E467047D3
:0C357400F8B500BFF8BC08BC9E467047CC
:103580000000000000000000010203040607080913
:103590000000000001020304FD007F005400000051
:0C35A000B900720144020000B8010020D4
:0835AC0088CCFF7F0100000044
:0835B40089340008E901000858
:0435BC00C50100083D
:1035C00001000000100000000000000000000000EA
:1035D00000000000000000000000000000000000EB
:1035E00000000000000000000000000000000000DB
:1035F00000000000000000000000000000000000CB
:1036000000000000000000000000000000000000BA
:1036100000000000000000000000000000000000AA
:10362000000000000000000000000000000000009A
:10363000000000000000000000000000000000008A
:10364000000000000000000000000000000000007A
:10365000000000000000000000000000000000006A
:10366000000000000000000000000000000000005A
:10367000000000000000000000000000000000004A
:10368000000000000000000000000000000000003A
:10369000000000000000000000000000000000002A
:1036A000000000000000000000000000000000001A
:1036B000000000000000000000000000000000000A
:1036C00000000000000000000000000000000000FA
:1036D00000000000000000000000000000000000EA
:1036E00000000000000000000000000000000000DA
:1036F00000000000000000000000000000000000CA
:1037000000000000000000000000000000000000B9
:1037100000000000000000000000000000000000A9
:103720000000000000000000000000000000000099
:103730000000000000000000000000000000000089
:103740000000000000000000000000000000000079
:103750000000000000000000000000000000000069
:103760000000000000000000000000000001000058
:103770000024F4000000000000000000A404002069
:103780000C0500207405002000000000000000006F
:103790000000000000000000000000000000000029
:1037A0000000000000000000000000000000000019
:1037B0000000000000000000000000000000000009
:1037C00000000000000000000000000000000000F9
:1037D00000000000000000000000000000000000E9
:1037E00000000000000000000000000000000000D9
:1037F00000000000000000000000000000000000C9
:1038000000000000000000000000000000000000B8
:1038100000000000000000000000000000000000A8
:1038200001000000000000000E33CDAB34126DE645
:10383000ECDE05000B0000000000000000000000AE
:103840000000000000000000000000000000000078
:103850000000000000000000000000000000000068
:103860000000000000000000000000000000000058
:103870000000000000000000000000000000000048
:043BA00038070020C2
:040000050800334D6F
:00000001FF
